:04000000C8EF3FF016
:107F90000001D0EF3FF0E0EC3FF0D7EC3FF01200F3
:107FA000CBEC3FF08A68D2EF3FF000EF00F0320EEA
:107FB000D36E000ED26E000E9B6E000EB56E1200D8
:107FC000000E8D6E000E8C6E000E896E000E8A6E95
:107FD000000E8B6E070E966E9268000E936EC70EA3
:107FE000946E95680F015E69C40E5D6F000E5C6F44
:107FF000070E5F6F2F0E5B6F000E856EF18E120005
:020000040020DA
:08000000FFFFFFFFFFFFFFFF00
:020000040030CA
:0E00000000285F3CFFD385FF0FC00FE00F40CC
:00000001FF
