:04000000FEEFFFF020
:020000040001F9
:10FE1400000188EFFFF022ECFFF034ECFFF014EC6B
:10FE2400FFF01200620E0001AD6F000EAF6F000E06
:10FE3400B36F020EB16F000EB06F000EAC6F120004
:10FE4400000E0001606F000E616F000E636F000E04
:10FE5400646F000E656F000E666F000E676F000E14
:10FE6400686F1200000EC26E000EC16E000EBE6EF0
:10FE7400000EC36E000EBF6E000EC06E070ECA6E7B
:10FE8400F00ECB6E000EC66E000EC76EF00EC86E7E
:10FE9400C96804011869000E106F000E086F070E80
:10FEA400206F000E286F000E006F000E196F000EF9
:10FEB400296F000E216F000E096F000E016F000EF6
:10FEC400116F000E0201896F000E886F000E876F9C
:10FED400000E866F000E0401226F000E2A6F000EC2
:10FEE400026F000E0A6F000E126F000E1A6F036984
:10FEF4000B6913691B69070E236F2B6904690C696D
:10FF040014691C690F0E246F2C6912000DECFFF0AC
:10FF1400C090C082C084C0863F0EBF6EA60EE82E7D
:10FF2400FED700D0C080C092C084C0863F0EBF6E92
:10FF3400A60EE82EFED700D0C080C082C094C08632
:10FF44003F0EBF6EA60EE82EFED700D0C080C08242
:10FF5400C084C0963F0EBF6EA60EE82EFED700D01A
:10FF6400D0B8B7EFFFF0B9EFFFF0C7EFFFF0C090E4
:10FF7400C082C084C086060EBF6E110E016E3A0E9A
:10FF8400E82EFED7012EFCD700D03F0EBF6ED0BAAC
:10FF9400CEEFFFF0D0EFFFF0DEEFFFF0C080C092B5
:10FFA400C084C086060EBF6E110E016E3A0EE82E96
:10FFB400FED7012EFCD700D03F0EBF6ED0BCE5EFBC
:10FFC400FFF0E7EFFFF0EBEFFFF0060EBF6EEDEF93
:10FFD400FFF03F0EBF6ED0BEF2EFFFF0F4EFFFF084
:10FFE400F8EFFFF0060EBF6E8AEFFFF03F0EBF6E14
:0CFFF4008AEFFFF0FEEFFFF00AEFFFF0D5
:020000040020DA
:10000000FF0FFF0FFF0FFF0FFF0FFF0FFF0FFF0F80
:10001000FF0FFF0FFF0FFF0FFF0FFF0FFF0FFF0F70
:10002000FF0FFF0FFF0FFF0FFF0FFF0FFF0FFF0F60
:10003000FF0FFF0FFF0FFF0FFF0FFF0FFF0FFF0F50
:020000040030CA
:0A000000ECFFF7FF9FFFFFFFFFFF7B
:00000001FF
